{
  "_format": "hh-sol-artifact-1",
  "contractName": "AARTArtists",
  "sourceName": "contracts/AARTArtists.sol",
  "abi": [
    {
      "inputs": [],
      "stateMutability": "nonpayable",
      "type": "constructor"
    },
    {
      "inputs": [],
      "name": "AART__AlreadyRegistered",
      "type": "error"
    },
    {
      "inputs": [],
      "name": "AART__OnlyEOA",
      "type": "error"
    },
    {
      "inputs": [
        {
          "internalType": "uint256",
          "name": "tokenId",
          "type": "uint256"
        }
      ],
      "name": "AART__OnlyTokenOwner",
      "type": "error"
    },
    {
      "anonymous": false,
      "inputs": [
        {
          "indexed": false,
          "internalType": "uint256",
          "name": "tokenId",
          "type": "uint256"
        },
        {
          "indexed": false,
          "internalType": "address",
          "name": "owner",
          "type": "address"
        },
        {
          "indexed": false,
          "internalType": "string",
          "name": "uri",
          "type": "string"
        }
      ],
      "name": "AART__ProfileCreated",
      "type": "event"
    },
    {
      "anonymous": false,
      "inputs": [
        {
          "indexed": false,
          "internalType": "uint256",
          "name": "tokenId",
          "type": "uint256"
        }
      ],
      "name": "AART__ProfileDeleted",
      "type": "event"
    },
    {
      "anonymous": false,
      "inputs": [
        {
          "indexed": false,
          "internalType": "uint256",
          "name": "tokenId",
          "type": "uint256"
        },
        {
          "indexed": false,
          "internalType": "string",
          "name": "newUri",
          "type": "string"
        }
      ],
      "name": "AART__ProfileUpdated",
      "type": "event"
    },
    {
      "anonymous": false,
      "inputs": [
        {
          "indexed": true,
          "internalType": "address",
          "name": "owner",
          "type": "address"
        },
        {
          "indexed": true,
          "internalType": "address",
          "name": "approved",
          "type": "address"
        },
        {
          "indexed": true,
          "internalType": "uint256",
          "name": "tokenId",
          "type": "uint256"
        }
      ],
      "name": "Approval",
      "type": "event"
    },
    {
      "anonymous": false,
      "inputs": [
        {
          "indexed": true,
          "internalType": "address",
          "name": "owner",
          "type": "address"
        },
        {
          "indexed": true,
          "internalType": "address",
          "name": "operator",
          "type": "address"
        },
        {
          "indexed": false,
          "internalType": "bool",
          "name": "approved",
          "type": "bool"
        }
      ],
      "name": "ApprovalForAll",
      "type": "event"
    },
    {
      "anonymous": false,
      "inputs": [
        {
          "indexed": true,
          "internalType": "address",
          "name": "previousOwner",
          "type": "address"
        },
        {
          "indexed": true,
          "internalType": "address",
          "name": "newOwner",
          "type": "address"
        }
      ],
      "name": "OwnershipTransferred",
      "type": "event"
    },
    {
      "anonymous": false,
      "inputs": [
        {
          "indexed": true,
          "internalType": "address",
          "name": "from",
          "type": "address"
        },
        {
          "indexed": true,
          "internalType": "address",
          "name": "to",
          "type": "address"
        },
        {
          "indexed": true,
          "internalType": "uint256",
          "name": "tokenId",
          "type": "uint256"
        }
      ],
      "name": "Transfer",
      "type": "event"
    },
    {
      "inputs": [
        {
          "internalType": "address",
          "name": "to",
          "type": "address"
        },
        {
          "internalType": "uint256",
          "name": "tokenId",
          "type": "uint256"
        }
      ],
      "name": "approve",
      "outputs": [],
      "stateMutability": "nonpayable",
      "type": "function"
    },
    {
      "inputs": [
        {
          "internalType": "address",
          "name": "owner",
          "type": "address"
        }
      ],
      "name": "balanceOf",
      "outputs": [
        {
          "internalType": "uint256",
          "name": "",
          "type": "uint256"
        }
      ],
      "stateMutability": "view",
      "type": "function"
    },
    {
      "inputs": [
        {
          "internalType": "uint256",
          "name": "tokenId",
          "type": "uint256"
        }
      ],
      "name": "burn",
      "outputs": [],
      "stateMutability": "nonpayable",
      "type": "function"
    },
    {
      "inputs": [
        {
          "internalType": "string",
          "name": "uri",
          "type": "string"
        }
      ],
      "name": "create",
      "outputs": [
        {
          "internalType": "uint256",
          "name": "",
          "type": "uint256"
        }
      ],
      "stateMutability": "nonpayable",
      "type": "function"
    },
    {
      "inputs": [],
      "name": "getAllProfiles",
      "outputs": [
        {
          "components": [
            {
              "internalType": "uint256",
              "name": "id",
              "type": "uint256"
            },
            {
              "internalType": "string",
              "name": "uri",
              "type": "string"
            }
          ],
          "internalType": "struct AARTArtists.Profile[]",
          "name": "",
          "type": "tuple[]"
        }
      ],
      "stateMutability": "view",
      "type": "function"
    },
    {
      "inputs": [
        {
          "internalType": "uint256",
          "name": "tokenId",
          "type": "uint256"
        }
      ],
      "name": "getApproved",
      "outputs": [
        {
          "internalType": "address",
          "name": "",
          "type": "address"
        }
      ],
      "stateMutability": "view",
      "type": "function"
    },
    {
      "inputs": [
        {
          "internalType": "address",
          "name": "user",
          "type": "address"
        }
      ],
      "name": "getUserProfile",
      "outputs": [
        {
          "components": [
            {
              "internalType": "uint256",
              "name": "id",
              "type": "uint256"
            },
            {
              "internalType": "string",
              "name": "uri",
              "type": "string"
            }
          ],
          "internalType": "struct AARTArtists.Profile",
          "name": "profile",
          "type": "tuple"
        }
      ],
      "stateMutability": "view",
      "type": "function"
    },
    {
      "inputs": [
        {
          "internalType": "address",
          "name": "user",
          "type": "address"
        }
      ],
      "name": "hasProfile",
      "outputs": [
        {
          "internalType": "bool",
          "name": "",
          "type": "bool"
        }
      ],
      "stateMutability": "view",
      "type": "function"
    },
    {
      "inputs": [
        {
          "internalType": "address",
          "name": "owner",
          "type": "address"
        },
        {
          "internalType": "address",
          "name": "operator",
          "type": "address"
        }
      ],
      "name": "isApprovedForAll",
      "outputs": [
        {
          "internalType": "bool",
          "name": "",
          "type": "bool"
        }
      ],
      "stateMutability": "view",
      "type": "function"
    },
    {
      "inputs": [],
      "name": "name",
      "outputs": [
        {
          "internalType": "string",
          "name": "",
          "type": "string"
        }
      ],
      "stateMutability": "view",
      "type": "function"
    },
    {
      "inputs": [],
      "name": "owner",
      "outputs": [
        {
          "internalType": "address",
          "name": "",
          "type": "address"
        }
      ],
      "stateMutability": "view",
      "type": "function"
    },
    {
      "inputs": [
        {
          "internalType": "uint256",
          "name": "tokenId",
          "type": "uint256"
        }
      ],
      "name": "ownerOf",
      "outputs": [
        {
          "internalType": "address",
          "name": "",
          "type": "address"
        }
      ],
      "stateMutability": "view",
      "type": "function"
    },
    {
      "inputs": [],
      "name": "renounceOwnership",
      "outputs": [],
      "stateMutability": "nonpayable",
      "type": "function"
    },
    {
      "inputs": [
        {
          "internalType": "address",
          "name": "from",
          "type": "address"
        },
        {
          "internalType": "address",
          "name": "to",
          "type": "address"
        },
        {
          "internalType": "uint256",
          "name": "tokenId",
          "type": "uint256"
        }
      ],
      "name": "safeTransferFrom",
      "outputs": [],
      "stateMutability": "nonpayable",
      "type": "function"
    },
    {
      "inputs": [
        {
          "internalType": "address",
          "name": "from",
          "type": "address"
        },
        {
          "internalType": "address",
          "name": "to",
          "type": "address"
        },
        {
          "internalType": "uint256",
          "name": "tokenId",
          "type": "uint256"
        },
        {
          "internalType": "bytes",
          "name": "data",
          "type": "bytes"
        }
      ],
      "name": "safeTransferFrom",
      "outputs": [],
      "stateMutability": "nonpayable",
      "type": "function"
    },
    {
      "inputs": [
        {
          "internalType": "address",
          "name": "operator",
          "type": "address"
        },
        {
          "internalType": "bool",
          "name": "approved",
          "type": "bool"
        }
      ],
      "name": "setApprovalForAll",
      "outputs": [],
      "stateMutability": "nonpayable",
      "type": "function"
    },
    {
      "inputs": [
        {
          "internalType": "bytes4",
          "name": "interfaceId",
          "type": "bytes4"
        }
      ],
      "name": "supportsInterface",
      "outputs": [
        {
          "internalType": "bool",
          "name": "",
          "type": "bool"
        }
      ],
      "stateMutability": "view",
      "type": "function"
    },
    {
      "inputs": [],
      "name": "symbol",
      "outputs": [
        {
          "internalType": "string",
          "name": "",
          "type": "string"
        }
      ],
      "stateMutability": "view",
      "type": "function"
    },
    {
      "inputs": [
        {
          "internalType": "uint256",
          "name": "tokenId",
          "type": "uint256"
        }
      ],
      "name": "tokenURI",
      "outputs": [
        {
          "internalType": "string",
          "name": "",
          "type": "string"
        }
      ],
      "stateMutability": "view",
      "type": "function"
    },
    {
      "inputs": [
        {
          "internalType": "address",
          "name": "from",
          "type": "address"
        },
        {
          "internalType": "address",
          "name": "to",
          "type": "address"
        },
        {
          "internalType": "uint256",
          "name": "tokenId",
          "type": "uint256"
        }
      ],
      "name": "transferFrom",
      "outputs": [],
      "stateMutability": "nonpayable",
      "type": "function"
    },
    {
      "inputs": [
        {
          "internalType": "address",
          "name": "newOwner",
          "type": "address"
        }
      ],
      "name": "transferOwnership",
      "outputs": [],
      "stateMutability": "nonpayable",
      "type": "function"
    },
    {
      "inputs": [
        {
          "internalType": "uint256",
          "name": "tokenId",
          "type": "uint256"
        },
        {
          "internalType": "string",
          "name": "newUri",
          "type": "string"
        }
      ],
      "name": "update",
      "outputs": [],
      "stateMutability": "nonpayable",
      "type": "function"
    }
  ],
  "bytecode": "0x60806040523480156200001157600080fd5b50604080518082018252601581527f4141525420417274697374732050726f66696c6573000000000000000000000060208083019182528351808501909452600384526204141560ec1b908401528151919291620000729160009162000101565b5080516200008890600190602084019062000101565b505050620000a56200009f620000ab60201b60201c565b620000af565b620001e4565b3390565b600780546001600160a01b038381166001600160a01b0319831681179093556040519116919082907f8be0079c531659141344cd1fd0a4f28419497f9722a3daafe3b4186f6b6457e090600090a35050565b8280546200010f90620001a7565b90600052602060002090601f0160209004810192826200013357600085556200017e565b82601f106200014e57805160ff19168380011785556200017e565b828001600101855582156200017e579182015b828111156200017e57825182559160200191906001019062000161565b506200018c92915062000190565b5090565b5b808211156200018c576000815560010162000191565b600181811c90821680620001bc57607f821691505b60208210811415620001de57634e487b7160e01b600052602260045260246000fd5b50919050565b611af680620001f46000396000f3fe608060405234801561001057600080fd5b50600436106101425760003560e01c80638da5cb5b116100b8578063b6a46b3b1161007c578063b6a46b3b146102ad578063b88d4fde146102c0578063c87b56dd146102d3578063e985e9c5146102e6578063f2fde38b14610322578063f745630f1461033557600080fd5b80638da5cb5b1461024e57806395d89b411461025f578063987ee15614610267578063a22cb46514610287578063a787c80b1461029a57600080fd5b806323b872dd1161010a57806323b872dd146101d957806342842e0e146101ec57806342966c68146101ff5780636352211e1461021257806370a0823114610225578063715018a61461024657600080fd5b806301ffc9a71461014757806306fdde031461016f578063081812fc14610184578063095ea7b3146101af5780630b1fe784146101c4575b600080fd5b61015a610155366004611509565b610348565b60405190151581526020015b60405180910390f35b610177610359565b604051610166919061157a565b61019761019236600461158d565b6103eb565b6040516001600160a01b039091168152602001610166565b6101c26101bd3660046115bd565b610412565b005b6101cc61052d565b6040516101669190611606565b6101c26101e7366004611668565b610686565b6101c26101fa366004611668565b6106b7565b6101c261020d36600461158d565b6106d2565b61019761022036600461158d565b61074e565b6102386102333660046116a4565b6107ae565b604051908152602001610166565b6101c2610834565b6007546001600160a01b0316610197565b610177610848565b61027a6102753660046116a4565b610857565b60405161016691906116bf565b6101c26102953660046116d2565b61097a565b61015a6102a83660046116a4565b610989565b6102386102bb3660046117ba565b61099c565b6101c26102ce3660046117ef565b610a35565b6101776102e136600461158d565b610a6d565b61015a6102f436600461186b565b6001600160a01b03918216600090815260056020908152604080832093909416825291909152205460ff1690565b6101c26103303660046116a4565b610b0f565b6101c261034336600461189e565b610b88565b600061035382610c0c565b92915050565b606060008054610368906118e5565b80601f0160208091040260200160405190810160405280929190818152602001828054610394906118e5565b80156103e15780601f106103b6576101008083540402835291602001916103e1565b820191906000526020600020905b8154815290600101906020018083116103c457829003601f168201915b5050505050905090565b60006103f682610c5c565b506000908152600460205260409020546001600160a01b031690565b600061041d8261074e565b9050806001600160a01b0316836001600160a01b031614156104905760405162461bcd60e51b815260206004820152602160248201527f4552433732313a20617070726f76616c20746f2063757272656e74206f776e656044820152603960f91b60648201526084015b60405180910390fd5b336001600160a01b03821614806104ac57506104ac81336102f4565b61051e5760405162461bcd60e51b815260206004820152603d60248201527f4552433732313a20617070726f76652063616c6c6572206973206e6f7420746f60448201527f6b656e206f776e6572206f7220617070726f76656420666f7220616c6c0000006064820152608401610487565b6105288383610cbb565b505050565b6060600061053a60085490565b905060008167ffffffffffffffff8111156105575761055761170e565b60405190808252806020026020018201604052801561059d57816020015b6040805180820190915260008152606060208201528152602001906001900390816105755790505b50905060005b8281101561067f57600081815260096020526040812080546105c4906118e5565b80601f01602080910402602001604051908101604052809291908181526020018280546105f0906118e5565b801561063d5780601f106106125761010080835404028352916020019161063d565b820191906000526020600020905b81548152906001019060200180831161062057829003601f168201915b5050505050905060405180604001604052808381526020018281525083838151811061066b5761066b611920565b6020908102919091010152506001016105a3565b5092915050565b6106903382610d29565b6106ac5760405162461bcd60e51b815260040161048790611936565b610528838383610da8565b61052883838360405180602001604052806000815250610a35565b6106db8161074e565b6001600160a01b0316336001600160a01b03161461070f57604051631a0a78b560e11b815260048101829052602401610487565b61071881610dff565b6040518181527fc1e34f9206d4148287febe3417cf018a81f6e512a815d3c0fb60f9df6fc7a6859060200160405180910390a150565b6000818152600260205260408120546001600160a01b0316806103535760405162461bcd60e51b8152602060048201526018602482015277115490cdcc8c4e881a5b9d985b1a59081d1bdad95b88125160421b6044820152606401610487565b60006001600160a01b0382166108185760405162461bcd60e51b815260206004820152602960248201527f4552433732313a2061646472657373207a65726f206973206e6f7420612076616044820152683634b21037bbb732b960b91b6064820152608401610487565b506001600160a01b031660009081526003602052604090205490565b61083c610e08565b6108466000610e62565b565b606060018054610368906118e5565b60408051808201909152600081526060602082015261087582610989565b1561097557600061088560085490565b905060005b8181101561097257836001600160a01b03166108a58261074e565b6001600160a01b0316141561096a57600081815260096020526040812080546108cd906118e5565b80601f01602080910402602001604051908101604052809291908181526020018280546108f9906118e5565b80156109465780601f1061091b57610100808354040283529160200191610946565b820191906000526020600020905b81548152906001019060200180831161092957829003601f168201915b50505050509050604051806040016040528083815260200182815250935050610972565b60010161088a565b50505b919050565b610985338383610eb4565b5050565b6000610994826107ae565b151592915050565b60006109a733610989565b156109c557604051630f8a89a960e31b815260040160405180910390fd5b60006109d060085490565b90506109e0600880546001019055565b6109ea3382610f83565b6109f48184610f9d565b7fb7d76c36ac680562e955ab085a7c9ca3816594de263a4878f9ebe9d1c6ad13d8813385604051610a2793929190611983565b60405180910390a192915050565b610a3f3383610d29565b610a5b5760405162461bcd60e51b815260040161048790611936565b610a6784848484610fbc565b50505050565b6000818152600960205260409020805460609190610a8a906118e5565b80601f0160208091040260200160405190810160405280929190818152602001828054610ab6906118e5565b8015610b035780601f10610ad857610100808354040283529160200191610b03565b820191906000526020600020905b815481529060010190602001808311610ae657829003601f168201915b50505050509050919050565b610b17610e08565b6001600160a01b038116610b7c5760405162461bcd60e51b815260206004820152602660248201527f4f776e61626c653a206e6577206f776e657220697320746865207a65726f206160448201526564647265737360d01b6064820152608401610487565b610b8581610e62565b50565b610b918261074e565b6001600160a01b0316336001600160a01b031614610bc557604051631a0a78b560e11b815260048101839052602401610487565b610bcf8282610f9d565b7fff52be68ce9520575a24f1431cb17df04bfaad86a642331bcff4dd780e2f5a188282604051610c009291906119b6565b60405180910390a15050565b60006001600160e01b031982166380ac58cd60e01b1480610c3d57506001600160e01b03198216635b5e139f60e01b145b8061035357506301ffc9a760e01b6001600160e01b0319831614610353565b6000818152600260205260409020546001600160a01b0316610b855760405162461bcd60e51b8152602060048201526018602482015277115490cdcc8c4e881a5b9d985b1a59081d1bdad95b88125160421b6044820152606401610487565b600081815260046020526040902080546001600160a01b0319166001600160a01b0384169081179091558190610cf08261074e565b6001600160a01b03167f8c5be1e5ebec7d5bd14f71427d1e84f3dd0314c0f7b2291e5b200ac8c7c3b92560405160405180910390a45050565b600080610d358361074e565b9050806001600160a01b0316846001600160a01b03161480610d7c57506001600160a01b0380821660009081526005602090815260408083209388168352929052205460ff165b80610da05750836001600160a01b0316610d95846103eb565b6001600160a01b0316145b949350505050565b60405162461bcd60e51b815260206004820152602660248201527f414152542070726f66696c65204e46547320617265206e6f74207472616e7366604482015265657261626c6560d01b6064820152608401610487565b610b8581610fef565b6007546001600160a01b031633146108465760405162461bcd60e51b815260206004820181905260248201527f4f776e61626c653a2063616c6c6572206973206e6f7420746865206f776e65726044820152606401610487565b600780546001600160a01b038381166001600160a01b0319831681179093556040519116919082907f8be0079c531659141344cd1fd0a4f28419497f9722a3daafe3b4186f6b6457e090600090a35050565b816001600160a01b0316836001600160a01b03161415610f165760405162461bcd60e51b815260206004820152601960248201527f4552433732313a20617070726f766520746f2063616c6c6572000000000000006044820152606401610487565b6001600160a01b03838116600081815260056020908152604080832094871680845294825291829020805460ff191686151590811790915591519182527f17307eab39ab6107e8899845ad3d59bd9653f200f220920489ca2b5937696c31910160405180910390a3505050565b61098582826040518060200160405280600081525061102f565b6000828152600960209081526040909120825161052892840190611424565b610fc7848484610da8565b610fd384848484611062565b610a675760405162461bcd60e51b8152600401610487906119cf565b610ff881611160565b60008181526006602052604090208054611011906118e5565b159050610b85576000818152600660205260408120610b85916114a8565b6110398383611203565b6110466000848484611062565b6105285760405162461bcd60e51b8152600401610487906119cf565b60006001600160a01b0384163b1561115557604051630a85bd0160e11b81526001600160a01b0385169063150b7a02906110a6903390899088908890600401611a21565b6020604051808303816000875af19250505080156110e1575060408051601f3d908101601f191682019092526110de91810190611a5e565b60015b61113b573d80801561110f576040519150601f19603f3d011682016040523d82523d6000602084013e611114565b606091505b5080516111335760405162461bcd60e51b8152600401610487906119cf565b805181602001fd5b6001600160e01b031916630a85bd0160e11b149050610da0565b506001949350505050565b600061116b8261074e565b905061117b81600084600161139c565b6111848261074e565b600083815260046020908152604080832080546001600160a01b03199081169091556001600160a01b0385168085526003845282852080546000190190558785526002909352818420805490911690555192935084927fddf252ad1be2c89b69c2b068fc378daa952ba7f163c4a11628f55a4df523b3ef908390a45050565b6001600160a01b0382166112595760405162461bcd60e51b815260206004820181905260248201527f4552433732313a206d696e7420746f20746865207a65726f20616464726573736044820152606401610487565b6000818152600260205260409020546001600160a01b0316156112be5760405162461bcd60e51b815260206004820152601c60248201527f4552433732313a20746f6b656e20616c7265616479206d696e746564000000006044820152606401610487565b6112cc60008383600161139c565b6000818152600260205260409020546001600160a01b0316156113315760405162461bcd60e51b815260206004820152601c60248201527f4552433732313a20746f6b656e20616c7265616479206d696e746564000000006044820152606401610487565b6001600160a01b038216600081815260036020908152604080832080546001019055848352600290915280822080546001600160a01b0319168417905551839291907fddf252ad1be2c89b69c2b068fc378daa952ba7f163c4a11628f55a4df523b3ef908290a45050565b6001811115610a67576001600160a01b038416156113e2576001600160a01b038416600090815260036020526040812080548392906113dc908490611a91565b90915550505b6001600160a01b03831615610a67576001600160a01b03831660009081526003602052604081208054839290611419908490611aa8565b909155505050505050565b828054611430906118e5565b90600052602060002090601f0160209004810192826114525760008555611498565b82601f1061146b57805160ff1916838001178555611498565b82800160010185558215611498579182015b8281111561149857825182559160200191906001019061147d565b506114a49291506114de565b5090565b5080546114b4906118e5565b6000825580601f106114c4575050565b601f016020900490600052602060002090810190610b8591905b5b808211156114a457600081556001016114df565b6001600160e01b031981168114610b8557600080fd5b60006020828403121561151b57600080fd5b8135611526816114f3565b9392505050565b6000815180845260005b8181101561155357602081850181015186830182015201611537565b81811115611565576000602083870101525b50601f01601f19169290920160200192915050565b602081526000611526602083018461152d565b60006020828403121561159f57600080fd5b5035919050565b80356001600160a01b038116811461097557600080fd5b600080604083850312156115d057600080fd5b6115d9836115a6565b946020939093013593505050565b805182526000602082015160406020850152610da0604085018261152d565b6000602080830181845280855180835260408601915060408160051b870101925083870160005b8281101561165b57603f198886030184526116498583516115e7565b9450928501929085019060010161162d565b5092979650505050505050565b60008060006060848603121561167d57600080fd5b611686846115a6565b9250611694602085016115a6565b9150604084013590509250925092565b6000602082840312156116b657600080fd5b611526826115a6565b60208152600061152660208301846115e7565b600080604083850312156116e557600080fd5b6116ee836115a6565b91506020830135801515811461170357600080fd5b809150509250929050565b634e487b7160e01b600052604160045260246000fd5b600067ffffffffffffffff8084111561173f5761173f61170e565b604051601f8501601f19908116603f011681019082821181831017156117675761176761170e565b8160405280935085815286868601111561178057600080fd5b858560208301376000602087830101525050509392505050565b600082601f8301126117ab57600080fd5b61152683833560208501611724565b6000602082840312156117cc57600080fd5b813567ffffffffffffffff8111156117e357600080fd5b610da08482850161179a565b6000806000806080858703121561180557600080fd5b61180e856115a6565b935061181c602086016115a6565b925060408501359150606085013567ffffffffffffffff81111561183f57600080fd5b8501601f8101871361185057600080fd5b61185f87823560208401611724565b91505092959194509250565b6000806040838503121561187e57600080fd5b611887836115a6565b9150611895602084016115a6565b90509250929050565b600080604083850312156118b157600080fd5b82359150602083013567ffffffffffffffff8111156118cf57600080fd5b6118db8582860161179a565b9150509250929050565b600181811c908216806118f957607f821691505b6020821081141561191a57634e487b7160e01b600052602260045260246000fd5b50919050565b634e487b7160e01b600052603260045260246000fd5b6020808252602d908201527f4552433732313a2063616c6c6572206973206e6f7420746f6b656e206f776e6560408201526c1c881bdc88185c1c1c9bdd9959609a1b606082015260800190565b8381526001600160a01b03831660208201526060604082018190526000906119ad9083018461152d565b95945050505050565b828152604060208201526000610da0604083018461152d565b60208082526032908201527f4552433732313a207472616e7366657220746f206e6f6e20455243373231526560408201527131b2b4bb32b91034b6b83632b6b2b73a32b960711b606082015260800190565b6001600160a01b0385811682528416602082015260408101839052608060608201819052600090611a549083018461152d565b9695505050505050565b600060208284031215611a7057600080fd5b8151611526816114f3565b634e487b7160e01b600052601160045260246000fd5b600082821015611aa357611aa3611a7b565b500390565b60008219821115611abb57611abb611a7b565b50019056fea2646970667358221220501ff0a0fd7e12015904db59e7da6b218f943f652787ce62f6a61ee5a1248af464736f6c634300080a0033",
  "linkReferences": {},
  "deployedLinkReferences": {}
}