{
  "_format": "hh-sol-artifact-1",
  "contractName": "AARTCollection",
  "sourceName": "contracts/AARTCollection.sol",
  "abi": [
    {
      "inputs": [
        {
          "internalType": "address",
          "name": "_artistsNftContract",
          "type": "address"
        },
        {
          "internalType": "uint256",
          "name": "_mintingFee",
          "type": "uint256"
        }
      ],
      "stateMutability": "nonpayable",
      "type": "constructor"
    },
    {
      "inputs": [],
      "name": "AART__ContractIsPaused",
      "type": "error"
    },
    {
      "inputs": [],
      "name": "AART__InsufficientAmount",
      "type": "error"
    },
    {
      "inputs": [],
      "name": "AART__OnlyRegisteredUser",
      "type": "error"
    },
    {
      "anonymous": false,
      "inputs": [
        {
          "indexed": false,
          "internalType": "uint256",
          "name": "newFee",
          "type": "uint256"
        }
      ],
      "name": "AART__NewMintFee",
      "type": "event"
    },
    {
      "anonymous": false,
      "inputs": [
        {
          "indexed": false,
          "internalType": "uint256",
          "name": "state",
          "type": "uint256"
        }
      ],
      "name": "AART__Pause",
      "type": "event"
    },
    {
      "anonymous": false,
      "inputs": [
        {
          "indexed": true,
          "internalType": "address",
          "name": "owner",
          "type": "address"
        },
        {
          "indexed": true,
          "internalType": "address",
          "name": "approved",
          "type": "address"
        },
        {
          "indexed": true,
          "internalType": "uint256",
          "name": "tokenId",
          "type": "uint256"
        }
      ],
      "name": "Approval",
      "type": "event"
    },
    {
      "anonymous": false,
      "inputs": [
        {
          "indexed": true,
          "internalType": "address",
          "name": "owner",
          "type": "address"
        },
        {
          "indexed": true,
          "internalType": "address",
          "name": "operator",
          "type": "address"
        },
        {
          "indexed": false,
          "internalType": "bool",
          "name": "approved",
          "type": "bool"
        }
      ],
      "name": "ApprovalForAll",
      "type": "event"
    },
    {
      "anonymous": false,
      "inputs": [
        {
          "indexed": true,
          "internalType": "address",
          "name": "previousOwner",
          "type": "address"
        },
        {
          "indexed": true,
          "internalType": "address",
          "name": "newOwner",
          "type": "address"
        }
      ],
      "name": "OwnershipTransferred",
      "type": "event"
    },
    {
      "anonymous": false,
      "inputs": [
        {
          "indexed": true,
          "internalType": "address",
          "name": "from",
          "type": "address"
        },
        {
          "indexed": true,
          "internalType": "address",
          "name": "to",
          "type": "address"
        },
        {
          "indexed": true,
          "internalType": "uint256",
          "name": "tokenId",
          "type": "uint256"
        }
      ],
      "name": "Transfer",
      "type": "event"
    },
    {
      "inputs": [
        {
          "internalType": "address",
          "name": "to",
          "type": "address"
        },
        {
          "internalType": "uint256",
          "name": "tokenId",
          "type": "uint256"
        }
      ],
      "name": "approve",
      "outputs": [],
      "stateMutability": "nonpayable",
      "type": "function"
    },
    {
      "inputs": [],
      "name": "artistsNftContract",
      "outputs": [
        {
          "internalType": "address",
          "name": "",
          "type": "address"
        }
      ],
      "stateMutability": "view",
      "type": "function"
    },
    {
      "inputs": [
        {
          "internalType": "address",
          "name": "owner",
          "type": "address"
        }
      ],
      "name": "balanceOf",
      "outputs": [
        {
          "internalType": "uint256",
          "name": "",
          "type": "uint256"
        }
      ],
      "stateMutability": "view",
      "type": "function"
    },
    {
      "inputs": [],
      "name": "getAllNfts",
      "outputs": [
        {
          "components": [
            {
              "internalType": "uint256",
              "name": "id",
              "type": "uint256"
            },
            {
              "internalType": "string",
              "name": "uri",
              "type": "string"
            }
          ],
          "internalType": "struct AARTCollection.ArtRender[]",
          "name": "",
          "type": "tuple[]"
        }
      ],
      "stateMutability": "view",
      "type": "function"
    },
    {
      "inputs": [
        {
          "internalType": "uint256",
          "name": "tokenId",
          "type": "uint256"
        }
      ],
      "name": "getApproved",
      "outputs": [
        {
          "internalType": "address",
          "name": "",
          "type": "address"
        }
      ],
      "stateMutability": "view",
      "type": "function"
    },
    {
      "inputs": [
        {
          "internalType": "address",
          "name": "account",
          "type": "address"
        }
      ],
      "name": "getUserNfts",
      "outputs": [
        {
          "components": [
            {
              "internalType": "uint256",
              "name": "id",
              "type": "uint256"
            },
            {
              "internalType": "string",
              "name": "uri",
              "type": "string"
            }
          ],
          "internalType": "struct AARTCollection.ArtRender[]",
          "name": "",
          "type": "tuple[]"
        }
      ],
      "stateMutability": "view",
      "type": "function"
    },
    {
      "inputs": [
        {
          "internalType": "address",
          "name": "owner",
          "type": "address"
        },
        {
          "internalType": "address",
          "name": "operator",
          "type": "address"
        }
      ],
      "name": "isApprovedForAll",
      "outputs": [
        {
          "internalType": "bool",
          "name": "",
          "type": "bool"
        }
      ],
      "stateMutability": "view",
      "type": "function"
    },
    {
      "inputs": [],
      "name": "mintFee",
      "outputs": [
        {
          "internalType": "uint256",
          "name": "",
          "type": "uint256"
        }
      ],
      "stateMutability": "view",
      "type": "function"
    },
    {
      "inputs": [
        {
          "internalType": "address",
          "name": "recipient",
          "type": "address"
        },
        {
          "internalType": "string",
          "name": "uri",
          "type": "string"
        }
      ],
      "name": "mintNFT",
      "outputs": [
        {
          "internalType": "uint256",
          "name": "",
          "type": "uint256"
        }
      ],
      "stateMutability": "payable",
      "type": "function"
    },
    {
      "inputs": [
        {
          "internalType": "address",
          "name": "recipient",
          "type": "address"
        },
        {
          "internalType": "string",
          "name": "uri",
          "type": "string"
        },
        {
          "internalType": "address",
          "name": "royaltyReceiver",
          "type": "address"
        },
        {
          "internalType": "uint96",
          "name": "feeNumerator",
          "type": "uint96"
        }
      ],
      "name": "mintWithRoyalty",
      "outputs": [
        {
          "internalType": "uint256",
          "name": "",
          "type": "uint256"
        }
      ],
      "stateMutability": "payable",
      "type": "function"
    },
    {
      "inputs": [],
      "name": "name",
      "outputs": [
        {
          "internalType": "string",
          "name": "",
          "type": "string"
        }
      ],
      "stateMutability": "view",
      "type": "function"
    },
    {
      "inputs": [],
      "name": "owner",
      "outputs": [
        {
          "internalType": "address",
          "name": "",
          "type": "address"
        }
      ],
      "stateMutability": "view",
      "type": "function"
    },
    {
      "inputs": [
        {
          "internalType": "uint256",
          "name": "tokenId",
          "type": "uint256"
        }
      ],
      "name": "ownerOf",
      "outputs": [
        {
          "internalType": "address",
          "name": "",
          "type": "address"
        }
      ],
      "stateMutability": "view",
      "type": "function"
    },
    {
      "inputs": [
        {
          "internalType": "uint256",
          "name": "_state",
          "type": "uint256"
        }
      ],
      "name": "pause",
      "outputs": [],
      "stateMutability": "payable",
      "type": "function"
    },
    {
      "inputs": [],
      "name": "paused",
      "outputs": [
        {
          "internalType": "uint256",
          "name": "",
          "type": "uint256"
        }
      ],
      "stateMutability": "view",
      "type": "function"
    },
    {
      "inputs": [],
      "name": "renounceOwnership",
      "outputs": [],
      "stateMutability": "nonpayable",
      "type": "function"
    },
    {
      "inputs": [
        {
          "internalType": "uint256",
          "name": "_tokenId",
          "type": "uint256"
        },
        {
          "internalType": "uint256",
          "name": "_salePrice",
          "type": "uint256"
        }
      ],
      "name": "royaltyInfo",
      "outputs": [
        {
          "internalType": "address",
          "name": "",
          "type": "address"
        },
        {
          "internalType": "uint256",
          "name": "",
          "type": "uint256"
        }
      ],
      "stateMutability": "view",
      "type": "function"
    },
    {
      "inputs": [
        {
          "internalType": "address",
          "name": "from",
          "type": "address"
        },
        {
          "internalType": "address",
          "name": "to",
          "type": "address"
        },
        {
          "internalType": "uint256",
          "name": "tokenId",
          "type": "uint256"
        }
      ],
      "name": "safeTransferFrom",
      "outputs": [],
      "stateMutability": "nonpayable",
      "type": "function"
    },
    {
      "inputs": [
        {
          "internalType": "address",
          "name": "from",
          "type": "address"
        },
        {
          "internalType": "address",
          "name": "to",
          "type": "address"
        },
        {
          "internalType": "uint256",
          "name": "tokenId",
          "type": "uint256"
        },
        {
          "internalType": "bytes",
          "name": "data",
          "type": "bytes"
        }
      ],
      "name": "safeTransferFrom",
      "outputs": [],
      "stateMutability": "nonpayable",
      "type": "function"
    },
    {
      "inputs": [
        {
          "internalType": "address",
          "name": "operator",
          "type": "address"
        },
        {
          "internalType": "bool",
          "name": "approved",
          "type": "bool"
        }
      ],
      "name": "setApprovalForAll",
      "outputs": [],
      "stateMutability": "nonpayable",
      "type": "function"
    },
    {
      "inputs": [
        {
          "internalType": "uint256",
          "name": "_newFee",
          "type": "uint256"
        }
      ],
      "name": "setMintFee",
      "outputs": [],
      "stateMutability": "payable",
      "type": "function"
    },
    {
      "inputs": [
        {
          "internalType": "bytes4",
          "name": "interfaceId",
          "type": "bytes4"
        }
      ],
      "name": "supportsInterface",
      "outputs": [
        {
          "internalType": "bool",
          "name": "",
          "type": "bool"
        }
      ],
      "stateMutability": "view",
      "type": "function"
    },
    {
      "inputs": [],
      "name": "symbol",
      "outputs": [
        {
          "internalType": "string",
          "name": "",
          "type": "string"
        }
      ],
      "stateMutability": "view",
      "type": "function"
    },
    {
      "inputs": [
        {
          "internalType": "uint256",
          "name": "tokenId",
          "type": "uint256"
        }
      ],
      "name": "tokenURI",
      "outputs": [
        {
          "internalType": "string",
          "name": "",
          "type": "string"
        }
      ],
      "stateMutability": "view",
      "type": "function"
    },
    {
      "inputs": [
        {
          "internalType": "address",
          "name": "from",
          "type": "address"
        },
        {
          "internalType": "address",
          "name": "to",
          "type": "address"
        },
        {
          "internalType": "uint256",
          "name": "tokenId",
          "type": "uint256"
        }
      ],
      "name": "transferFrom",
      "outputs": [],
      "stateMutability": "nonpayable",
      "type": "function"
    },
    {
      "inputs": [
        {
          "internalType": "address",
          "name": "newOwner",
          "type": "address"
        }
      ],
      "name": "transferOwnership",
      "outputs": [],
      "stateMutability": "nonpayable",
      "type": "function"
    },
    {
      "inputs": [],
      "name": "withdraw",
      "outputs": [],
      "stateMutability": "payable",
      "type": "function"
    }
  ],
  "bytecode": "0x60a06040526001600b55600a600c553480156200001b57600080fd5b506040516200241b3803806200241b8339810160408190526200003e91620002fa565b604080518082018252601981527f41727469666369656c2041727420436f6c6c65637469626c65000000000000006020808301918252835180850190945260048452631050549560e21b9084015281519192916200009f9160009162000254565b508051620000b590600190602084019062000254565b505050620000d2620000cc620000f960201b60201c565b620000fd565b6001600160a01b038216608052600c819055620000f13360006200014f565b505062000373565b3390565b600980546001600160a01b038381166001600160a01b0319831681179093556040519116919082907f8be0079c531659141344cd1fd0a4f28419497f9722a3daafe3b4186f6b6457e090600090a35050565b6127106001600160601b0382161115620001c35760405162461bcd60e51b815260206004820152602a60248201527f455243323938313a20726f79616c7479206665652077696c6c206578636565646044820152692073616c65507269636560b01b60648201526084015b60405180910390fd5b6001600160a01b0382166200021b5760405162461bcd60e51b815260206004820152601960248201527f455243323938313a20696e76616c6964207265636569766572000000000000006044820152606401620001ba565b604080518082019091526001600160a01b039092168083526001600160601b039091166020909201829052600160a01b90910217600755565b828054620002629062000336565b90600052602060002090601f016020900481019282620002865760008555620002d1565b82601f10620002a157805160ff1916838001178555620002d1565b82800160010185558215620002d1579182015b82811115620002d1578251825591602001919060010190620002b4565b50620002df929150620002e3565b5090565b5b80821115620002df5760008155600101620002e4565b600080604083850312156200030e57600080fd5b82516001600160a01b03811681146200032657600080fd5b6020939093015192949293505050565b600181811c908216806200034b57607f821691505b602082108114156200036d57634e487b7160e01b600052602260045260246000fd5b50919050565b6080516120856200039660003960008181610264015261120401526120856000f3fe60806040526004361061019c5760003560e01c80636352211e116100ec578063a22cb4651161008a578063e985e9c511610064578063e985e9c514610497578063eacabe14146104e0578063eddd0d9c146104f3578063f2fde38b1461050657600080fd5b8063a22cb46514610437578063b88d4fde14610457578063c87b56dd1461047757600080fd5b8063732e8d73116100c6578063732e8d73146103c25780637908d009146103e45780638da5cb5b1461040457806395d89b411461042257600080fd5b80636352211e1461036d57806370a082311461038d578063715018a6146103ad57600080fd5b806313966db5116101595780633ccfd60b116101335780633ccfd60b1461031c57806342842e0e1461032457806344e96670146103445780635c975abb1461035757600080fd5b806313966db51461029957806323b872dd146102bd5780632a55205a146102dd57600080fd5b806301ffc9a7146101a157806306fdde03146101d6578063081812fc146101f8578063095ea7b3146102305780630cdb1efe14610252578063136439dd14610286575b600080fd5b3480156101ad57600080fd5b506101c16101bc3660046119ce565b610526565b60405190151581526020015b60405180910390f35b3480156101e257600080fd5b506101eb610537565b6040516101cd9190611a38565b34801561020457600080fd5b50610218610213366004611a4b565b6105c9565b6040516001600160a01b0390911681526020016101cd565b34801561023c57600080fd5b5061025061024b366004611a80565b6105f0565b005b34801561025e57600080fd5b506102187f000000000000000000000000000000000000000000000000000000000000000081565b610250610294366004611a4b565b61070b565b3480156102a557600080fd5b506102af600c5481565b6040519081526020016101cd565b3480156102c957600080fd5b506102506102d8366004611aaa565b610764565b3480156102e957600080fd5b506102fd6102f8366004611ae6565b610795565b604080516001600160a01b0390931683526020830191909152016101cd565b610250610841565b34801561033057600080fd5b5061025061033f366004611aaa565b6108a1565b6102af610352366004611bb4565b6108bc565b34801561036357600080fd5b506102af600b5481565b34801561037957600080fd5b50610218610388366004611a4b565b6108e1565b34801561039957600080fd5b506102af6103a8366004611c31565b610941565b3480156103b957600080fd5b506102506109c7565b3480156103ce57600080fd5b506103d76109db565b6040516101cd9190611c4c565b3480156103f057600080fd5b506103d76103ff366004611c31565b610b34565b34801561041057600080fd5b506009546001600160a01b0316610218565b34801561042e57600080fd5b506101eb610cd0565b34801561044357600080fd5b50610250610452366004611cce565b610cdf565b34801561046357600080fd5b50610250610472366004611d05565b610cee565b34801561048357600080fd5b506101eb610492366004611a4b565b610d26565b3480156104a357600080fd5b506101c16104b2366004611d81565b6001600160a01b03918216600090815260056020908152604080832093909416825291909152205460ff1690565b6102af6104ee366004611db4565b610dc8565b610250610501366004611a4b565b610ddb565b34801561051257600080fd5b50610250610521366004611c31565b610e18565b600061053182610e8e565b92915050565b60606000805461054690611e02565b80601f016020809104026020016040519081016040528092919081815260200182805461057290611e02565b80156105bf5780601f10610594576101008083540402835291602001916105bf565b820191906000526020600020905b8154815290600101906020018083116105a257829003601f168201915b5050505050905090565b60006105d482610eb3565b506000908152600460205260409020546001600160a01b031690565b60006105fb826108e1565b9050806001600160a01b0316836001600160a01b0316141561066e5760405162461bcd60e51b815260206004820152602160248201527f4552433732313a20617070726f76616c20746f2063757272656e74206f776e656044820152603960f91b60648201526084015b60405180910390fd5b336001600160a01b038216148061068a575061068a81336104b2565b6106fc5760405162461bcd60e51b815260206004820152603d60248201527f4552433732313a20617070726f76652063616c6c6572206973206e6f7420746f60448201527f6b656e206f776e6572206f7220617070726f76656420666f7220616c6c0000006064820152608401610665565b6107068383610f12565b505050565b610713610f80565b80600114806107225750806002145b1561072d57600b8190555b6040518181527f2c3dbc3aaf02e80a17764303fc7a5f3a4b6c2aa610f99cff91adc9e9c4f2fe6e906020015b60405180910390a150565b61076e3382610fda565b61078a5760405162461bcd60e51b815260040161066590611e3d565b610706838383611058565b60008281526008602090815260408083208151808301909252546001600160a01b038116808352600160a01b9091046001600160601b031692820192909252829161080a5750604080518082019091526007546001600160a01b0381168252600160a01b90046001600160601b031660208201525b602081015160009061271090610829906001600160601b031687611ea0565b6108339190611ebf565b915196919550909350505050565b610849610f80565b604051600090339047908381818185875af1925050503d806000811461088b576040519150601f19603f3d011682016040523d82523d6000602084013e610890565b606091505b505090508061089e57600080fd5b50565b61070683838360405180602001604052806000815250610cee565b6000806108c986866111c9565b90506108d68185856112e5565b90505b949350505050565b6000818152600260205260408120546001600160a01b0316806105315760405162461bcd60e51b8152602060048201526018602482015277115490cdcc8c4e881a5b9d985b1a59081d1bdad95b88125160421b6044820152606401610665565b60006001600160a01b0382166109ab5760405162461bcd60e51b815260206004820152602960248201527f4552433732313a2061646472657373207a65726f206973206e6f7420612076616044820152683634b21037bbb732b960b91b6064820152608401610665565b506001600160a01b031660009081526003602052604090205490565b6109cf610f80565b6109d960006113f3565b565b606060006109e8600a5490565b905060008167ffffffffffffffff811115610a0557610a05611b08565b604051908082528060200260200182016040528015610a4b57816020015b604080518082019091526000815260606020820152815260200190600190039081610a235790505b50905060005b82811015610b2d576000818152600d602052604081208054610a7290611e02565b80601f0160208091040260200160405190810160405280929190818152602001828054610a9e90611e02565b8015610aeb5780601f10610ac057610100808354040283529160200191610aeb565b820191906000526020600020905b815481529060010190602001808311610ace57829003601f168201915b50505050509050604051806040016040528083815260200182815250838381518110610b1957610b19611ee1565b602090810291909101015250600101610a51565b5092915050565b60606000610b41600a5490565b90506000610b4e84610941565b905060008167ffffffffffffffff811115610b6b57610b6b611b08565b604051908082528060200260200182016040528015610bb157816020015b604080518082019091526000815260606020820152815260200190600190039081610b895790505b5090506000805b84811015610cc557866001600160a01b0316610bd3826108e1565b6001600160a01b03161415610cbd576000818152600d602052604081208054610bfb90611e02565b80601f0160208091040260200160405190810160405280929190818152602001828054610c2790611e02565b8015610c745780601f10610c4957610100808354040283529160200191610c74565b820191906000526020600020905b815481529060010190602001808311610c5757829003601f168201915b50505050509050604051806040016040528083815260200182815250848481518110610ca257610ca2611ee1565b60200260200101819052508280610cb890611ef7565b935050505b600101610bb8565b509095945050505050565b60606001805461054690611e02565b610cea338383611445565b5050565b610cf83383610fda565b610d145760405162461bcd60e51b815260040161066590611e3d565b610d2084848484611514565b50505050565b6000818152600d60205260409020805460609190610d4390611e02565b80601f0160208091040260200160405190810160405280929190818152602001828054610d6f90611e02565b8015610dbc5780601f10610d9157610100808354040283529160200191610dbc565b820191906000526020600020905b815481529060010190602001808311610d9f57829003601f168201915b50505050509050919050565b6000610dd483836111c9565b9392505050565b610de3610f80565b600c8190556040518181527f12ce0818faf64908a849e56f58d1ddc6dcf8b6a4d6479565d8f12f8a9bd96cba90602001610759565b610e20610f80565b6001600160a01b038116610e855760405162461bcd60e51b815260206004820152602660248201527f4f776e61626c653a206e6577206f776e657220697320746865207a65726f206160448201526564647265737360d01b6064820152608401610665565b61089e816113f3565b60006001600160e01b0319821663152a902d60e11b1480610531575061053182611547565b6000818152600260205260409020546001600160a01b031661089e5760405162461bcd60e51b8152602060048201526018602482015277115490cdcc8c4e881a5b9d985b1a59081d1bdad95b88125160421b6044820152606401610665565b600081815260046020526040902080546001600160a01b0319166001600160a01b0384169081179091558190610f47826108e1565b6001600160a01b03167f8c5be1e5ebec7d5bd14f71427d1e84f3dd0314c0f7b2291e5b200ac8c7c3b92560405160405180910390a45050565b6009546001600160a01b031633146109d95760405162461bcd60e51b815260206004820181905260248201527f4f776e61626c653a2063616c6c6572206973206e6f7420746865206f776e65726044820152606401610665565b600080610fe6836108e1565b9050806001600160a01b0316846001600160a01b0316148061102d57506001600160a01b0380821660009081526005602090815260408083209388168352929052205460ff165b806108d95750836001600160a01b0316611046846105c9565b6001600160a01b031614949350505050565b826001600160a01b031661106b826108e1565b6001600160a01b0316146110915760405162461bcd60e51b815260040161066590611f12565b6001600160a01b0382166110f35760405162461bcd60e51b8152602060048201526024808201527f4552433732313a207472616e7366657220746f20746865207a65726f206164646044820152637265737360e01b6064820152608401610665565b6111008383836001611597565b826001600160a01b0316611113826108e1565b6001600160a01b0316146111395760405162461bcd60e51b815260040161066590611f12565b600081815260046020908152604080832080546001600160a01b03199081169091556001600160a01b0387811680865260038552838620805460001901905590871680865283862080546001019055868652600290945282852080549092168417909155905184937fddf252ad1be2c89b69c2b068fc378daa952ba7f163c4a11628f55a4df523b3ef91a4505050565b6000600b54600114156111ef57604051633bdade4160e01b815260040160405180910390fd5b60405163a787c80b60e01b81523360048201527f00000000000000000000000000000000000000000000000000000000000000006001600160a01b03169063a787c80b90602401602060405180830381865afa158015611253573d6000803e3d6000fd5b505050506040513d601f19601f820116820180604052508101906112779190611f57565b611294576040516393a0575560e01b815260040160405180910390fd5b600c5434146112b657604051630c3bf8eb60e31b815260040160405180910390fd5b60006112c1600a5490565b90506112d1600a80546001019055565b6112db848261161f565b610dd48184611639565b6127106001600160601b03821611156113535760405162461bcd60e51b815260206004820152602a60248201527f455243323938313a20726f79616c7479206665652077696c6c206578636565646044820152692073616c65507269636560b01b6064820152608401610665565b6001600160a01b0382166113a95760405162461bcd60e51b815260206004820152601b60248201527f455243323938313a20496e76616c696420706172616d657465727300000000006044820152606401610665565b6040805180820182526001600160a01b0393841681526001600160601b0392831660208083019182526000968752600890529190942093519051909116600160a01b029116179055565b600980546001600160a01b038381166001600160a01b0319831681179093556040519116919082907f8be0079c531659141344cd1fd0a4f28419497f9722a3daafe3b4186f6b6457e090600090a35050565b816001600160a01b0316836001600160a01b031614156114a75760405162461bcd60e51b815260206004820152601960248201527f4552433732313a20617070726f766520746f2063616c6c6572000000000000006044820152606401610665565b6001600160a01b03838116600081815260056020908152604080832094871680845294825291829020805460ff191686151590811790915591519182527f17307eab39ab6107e8899845ad3d59bd9653f200f220920489ca2b5937696c31910160405180910390a3505050565b61151f848484611058565b61152b84848484611658565b610d205760405162461bcd60e51b815260040161066590611f74565b60006001600160e01b031982166380ac58cd60e01b148061157857506001600160e01b03198216635b5e139f60e01b145b8061053157506301ffc9a760e01b6001600160e01b0319831614610531565b6001811115610d20576001600160a01b038416156115dd576001600160a01b038416600090815260036020526040812080548392906115d7908490611fc6565b90915550505b6001600160a01b03831615610d20576001600160a01b03831660009081526003602052604081208054839290611614908490611fdd565b909155505050505050565b610cea828260405180602001604052806000815250611753565b6000828152600d6020908152604090912082516107069284019061191f565b60006001600160a01b0384163b1561174b57604051630a85bd0160e11b81526001600160a01b0385169063150b7a029061169c903390899088908890600401611ff5565b6020604051808303816000875af19250505080156116d7575060408051601f3d908101601f191682019092526116d491810190612032565b60015b611731573d808015611705576040519150601f19603f3d011682016040523d82523d6000602084013e61170a565b606091505b5080516117295760405162461bcd60e51b815260040161066590611f74565b805181602001fd5b6001600160e01b031916630a85bd0160e11b1490506108d9565b5060016108d9565b61175d8383611786565b61176a6000848484611658565b6107065760405162461bcd60e51b815260040161066590611f74565b6001600160a01b0382166117dc5760405162461bcd60e51b815260206004820181905260248201527f4552433732313a206d696e7420746f20746865207a65726f20616464726573736044820152606401610665565b6000818152600260205260409020546001600160a01b0316156118415760405162461bcd60e51b815260206004820152601c60248201527f4552433732313a20746f6b656e20616c7265616479206d696e746564000000006044820152606401610665565b61184f600083836001611597565b6000818152600260205260409020546001600160a01b0316156118b45760405162461bcd60e51b815260206004820152601c60248201527f4552433732313a20746f6b656e20616c7265616479206d696e746564000000006044820152606401610665565b6001600160a01b038216600081815260036020908152604080832080546001019055848352600290915280822080546001600160a01b0319168417905551839291907fddf252ad1be2c89b69c2b068fc378daa952ba7f163c4a11628f55a4df523b3ef908290a45050565b82805461192b90611e02565b90600052602060002090601f01602090048101928261194d5760008555611993565b82601f1061196657805160ff1916838001178555611993565b82800160010185558215611993579182015b82811115611993578251825591602001919060010190611978565b5061199f9291506119a3565b5090565b5b8082111561199f57600081556001016119a4565b6001600160e01b03198116811461089e57600080fd5b6000602082840312156119e057600080fd5b8135610dd4816119b8565b6000815180845260005b81811015611a11576020818501810151868301820152016119f5565b81811115611a23576000602083870101525b50601f01601f19169290920160200192915050565b602081526000610dd460208301846119eb565b600060208284031215611a5d57600080fd5b5035919050565b80356001600160a01b0381168114611a7b57600080fd5b919050565b60008060408385031215611a9357600080fd5b611a9c83611a64565b946020939093013593505050565b600080600060608486031215611abf57600080fd5b611ac884611a64565b9250611ad660208501611a64565b9150604084013590509250925092565b60008060408385031215611af957600080fd5b50508035926020909101359150565b634e487b7160e01b600052604160045260246000fd5b600067ffffffffffffffff80841115611b3957611b39611b08565b604051601f8501601f19908116603f01168101908282118183101715611b6157611b61611b08565b81604052809350858152868686011115611b7a57600080fd5b858560208301376000602087830101525050509392505050565b600082601f830112611ba557600080fd5b610dd483833560208501611b1e565b60008060008060808587031215611bca57600080fd5b611bd385611a64565b9350602085013567ffffffffffffffff811115611bef57600080fd5b611bfb87828801611b94565b935050611c0a60408601611a64565b915060608501356001600160601b0381168114611c2657600080fd5b939692955090935050565b600060208284031215611c4357600080fd5b610dd482611a64565b60006020808301818452808551808352604092508286019150828160051b87010184880160005b83811015611cb257888303603f19018552815180518452870151878401879052611c9f878501826119eb565b9588019593505090860190600101611c73565b509098975050505050505050565b801515811461089e57600080fd5b60008060408385031215611ce157600080fd5b611cea83611a64565b91506020830135611cfa81611cc0565b809150509250929050565b60008060008060808587031215611d1b57600080fd5b611d2485611a64565b9350611d3260208601611a64565b925060408501359150606085013567ffffffffffffffff811115611d5557600080fd5b8501601f81018713611d6657600080fd5b611d7587823560208401611b1e565b91505092959194509250565b60008060408385031215611d9457600080fd5b611d9d83611a64565b9150611dab60208401611a64565b90509250929050565b60008060408385031215611dc757600080fd5b611dd083611a64565b9150602083013567ffffffffffffffff811115611dec57600080fd5b611df885828601611b94565b9150509250929050565b600181811c90821680611e1657607f821691505b60208210811415611e3757634e487b7160e01b600052602260045260246000fd5b50919050565b6020808252602d908201527f4552433732313a2063616c6c6572206973206e6f7420746f6b656e206f776e6560408201526c1c881bdc88185c1c1c9bdd9959609a1b606082015260800190565b634e487b7160e01b600052601160045260246000fd5b6000816000190483118215151615611eba57611eba611e8a565b500290565b600082611edc57634e487b7160e01b600052601260045260246000fd5b500490565b634e487b7160e01b600052603260045260246000fd5b6000600019821415611f0b57611f0b611e8a565b5060010190565b60208082526025908201527f4552433732313a207472616e736665722066726f6d20696e636f72726563742060408201526437bbb732b960d91b606082015260800190565b600060208284031215611f6957600080fd5b8151610dd481611cc0565b60208082526032908201527f4552433732313a207472616e7366657220746f206e6f6e20455243373231526560408201527131b2b4bb32b91034b6b83632b6b2b73a32b960711b606082015260800190565b600082821015611fd857611fd8611e8a565b500390565b60008219821115611ff057611ff0611e8a565b500190565b6001600160a01b0385811682528416602082015260408101839052608060608201819052600090612028908301846119eb565b9695505050505050565b60006020828403121561204457600080fd5b8151610dd4816119b856fea26469706673582212207f90927161745b102c5bc4bdbdb43e3c326d6c5118e7979e500e53c1e43c10da64736f6c634300080a0033",
  "linkReferences": {},
  "deployedLinkReferences": {}
}